:100000000C943B020C9458020C9458020C94580225
:100010000C9458020C9458020C9458020C945802F8
:100020000C9458020C9458020C943B1C0C94731CB6
:100030000C9458020C9458020C9458020C945802D8
:100040000C9458020C9458020C9458020C945802C8
:100050000C9458020C9458020C9458020C945A02B6
:100060000C9458020C9458020C9458020C945802A8
:100070000C9458020C9458020C9458020C94580298
:100080000C9458020C9458020C9458020C94580288
:100090000C9458020C9458020C9458020C94580278
:1000A0000C9458020C9458020C94580205A84CCD9C
:1000B000B2D44EB93836A9020C50B9918688083CA2
:1000C000A6AAAA2ABE000000803F6E616E00696E7B
:1000D000660000407A10F35A00A0724E1809001012
:1000E000A5D4E80000E87648170000E40B540200AD
:1000F00000CA9A3B000000E1F505000080969800D8
:10010000000040420F000000A08601000000102700
:1001100000000000E8030000000064000000000090
:100120000A00000000000100000000002C76D888C2
:10013000DC674F0823DFC1DFAE59E1B1B796E5E3D5
:10014000E453C63AE651997696E8E6C28426EB89EE
:100150008C9B62ED407C6FFCEFBC9C9F40F2BAA58B
:100160006FA5F490055A2AF75C936B6CF9676DC123
:100170001BFCE0E40D47FEF520E6B500D0ED902E27
:100180000300943577050080841E080000204E0A85
:10019000000000C80C333333330F986E12831141C3
:1001A000EF8D2114893BE65516CFFEE6DB18D1848E
:1001B0004B381BF77C1D901DA4BBE42420328472B5
:1001C0005E228100C9F124ECA1E53D270001000079
:1001D00079021200020000360243000300003202DE
:1001E00004010309041C0214020309040402160397
:1001F000030904F6010C0C03310032003300340013
:100200003500000016035500530042002000530043
:1002100065007200690061006C0000001403590061
:100220006F007500720020004E0061006D006500D7
:1002300000000403090409024300020100C032095E
:100240000400000102020100052400100105240140
:10025000010104240206052406000107058203109B
:10026000004009040100020A0000000705030240E3
:100270000000070584024000001201000202000095
:1002800010C0167A040001010203010001C112012D
:100290008036018136000000000000005F00000091
:1002A00007000700147F147F14242A7F2A122313C7
:1002B00008646236495522500005030000001C22E4
:1002C00041000041221C0014083E081408083E08A2
:1002D00008005030000008080808080060600000AE
:1002E00020100804023E5149453E00427F40004232
:1002F000615149462141454B311814127F10274561
:100300004545393C4A494930017109050336494997
:100310004936064949291E00363600000056360087
:10032000000814224100141414141400412214086B
:100330000201510906324979413E7E1111117E7F39
:10034000494949363E414141227F4141221C7F4972
:100350004949417F090909013E4149497A7F080815
:10036000087F00417F41002040413F017F08142267
:10037000417F404040407F020C027F7F0408107F95
:100380003E4141413E7F090909063E4151215E7FC0
:1003900009192946464949493101017F01013F4078
:1003A00040403F1F2040201F3F4038403F6314081B
:1003B000146307087008076151494543007F4141B4
:1003C0000002040810200041417F000402010204E1
:1003D0004040404040000102040020545454787FC3
:1003E000484444383844444420384444487F3854CE
:1003F000545418087E0901020C5252523E7F0804E0
:10040000047800447D40002040443D007F10284493
:100410000000417F40007C041804787C08040478C4
:1004200038444444387C14141408081414187C7C90
:10043000080404084854545420043F4440203C40DD
:1004400040207C1C2040201C3C4030403C44281074
:1004500028440C5050503C4464544C4400083641ED
:100460000000007F00000041360800100808100856
:1004700078464146780011241FBECFEFDAE0DEBF98
:10048000CDBF14E0A0E0B1E0EEE6F4E502C00590D7
:100490000D92AC33B107D9F729E0ACE3B4E001C069
:1004A0001D92A73DB207E1F70E9466190C94EB2953
:1004B0000C9400001F921FB61F9211248F939F93DC
:1004C000AF93BF9380910C01811113C080915904A7
:1004D00090915A04A0915B04B0915C040196A11D17
:1004E000B11D8093590490935A04A0935B04B09378
:1004F0005C04BF91AF919F918F911F901FBE1F9081
:10050000189580E88093610081E08093610014BCBD
:1005100095E095BD80936E00789451982798219826
:100520005098209886988598229A239A0E94C41DF4
:100530008FE30E94E91F0E94881983E08093BF0027
:100540008FEF8093D10082E88093C0003F9A87E0CC
:100550008093C1001092C3000E94A1198823E1F387
:100560000895FC0101900020E9F73197BF01681B55
:10057000790B0C94551A9093BF008093CF00089587
:100580002F923F924F925F926F927F928F929F92A3
:10059000AF92BF92CF92DF92EF92FF920F931F9391
:1005A000CF93DF93CDB7DEB71901081B190BFB0101
:1005B000EC19FD09EA9D9001EB9D300DFA9D300D7F
:1005C00011242E193F09ED89FE892E0F3F1F260E9B
:1005D000371E2C01440E551E37016A0C7B1C8C0CF7
:1005E0009D1C62157305BCF180E0DF91CF911F91D6
:1005F0000F91FF90EF90DF90CF90BF90AF909F90C2
:100600008F907F906F905F904F903F902F900895C4
:10061000EE15FF05ACF0E615F70594F46C157D05B5
:100620007CF06815790564F4D801AE0FBF1FAC915A
:10063000A03231F0D901AE0FBF1FAC91A03269F4E6
:100640003196E415F50524F36F5F7F4F040F151FF6
:100650002A0D3B1DC6CFFC01F4CF81E0C6CF4F92DF
:100660005F926F927F928F929F92AF92BF92CF9242
:10067000DF92EF92FF920F931F93CF93DF933C0192
:100680005A012901EB01D12CC12CC414D50454F119
:10069000DF91CF911F910F91FF90EF90DF90CF905E
:1006A000BF90AF909F908F907F906F905F904F9092
:1006B0000895F40181914F01803239F041E0BE018B
:1006C000C3018E0D9F1D0E94F91DFFEFEF1AFF0A57
:1006D000EA14FB0474F38FEFC81AD80A0A0D1B1D25
:1006E0002196D3CF4801F12CE12CF2CF0F93CF9379
:1006F000DF93D82FC62F5F934F933F932F9389E3B8
:1007000091E09F938F931F9284E18F938CED94E0FF
:100710009F938F930E94EA288DB79EB70A960FB6D3
:10072000F8949EBF0FBE8DBF6C2F70E0202F4CED54
:1007300054E08D2F90E0DF91CF910F910C94A61F84
:100740001F93CF93DF93D82FC62F122F5F934F9312
:100750008CE391E09F938F931F9284E18F938CEDB4
:1007600094E09F938F930E94EA288DB79EB70896D6
:100770000FB6F8949EBF0FBE8DBF6C2F70E0212F77
:100780004CED54E08D2F90E0DF91CF911F910C94B0
:10079000A61F843759F099E9980F973038F091E007
:1007A0008F3609F090E0892F8170089581E0FCCFA9
:1007B000813679F0843669F0873759F090E9980FDF
:1007C000943038F091E08F3309F090E0892F8170F8
:1007D000089581E0FCCFCF92DF92EF92FF92CF930A
:1007E00080910C01811133C06091590470915A04B9
:1007F00080915B0490915C04C6B50E949E2420E029
:1008000030E040E853E40E94EC256B017C016C2F42
:1008100070E090E080E00E94A0249B01AC01C70141
:10082000B6010E94802320E030E040E854E40E94BA
:10083000EC2520E034E244EF5AE40E94F623609372
:100840004704709348048093490490934A04CF91DD
:10085000FF90EF90DF90CF9008950F9301E027E293
:1008600030E044E550E067E270E090E080E00E9414
:100870001F1E0F910895CF93DF938091690490918B
:100880006A04039750F00E94712762E070E00E94B2
:10089000C02690936A048093690480910C018111B1
:1008A0001FC08091690490916A0481309105E1F53F
:1008B000C0912A01D0912B011C161D068CF420E05A
:1008C00030E040E85FE36091240170912501809160
:1008D0002601909127010E94EC23219787FF3EC0BB
:1008E000199904C080914807813631F480916904D8
:1008F00090916A04892B61F0489904C0809148075F
:10090000843689F58091690490916A04019759F5BC
:1009100082E090E090936A048093690480E280937F
:100920006604DF91CF910895892BD1F6C0912A01F9
:10093000D0912B01CE34D1059CF620E030E044EA82
:1009400052E46091240170912501809126019091DB
:1009500027010E94E72518161CF22196D0932B013F
:10096000C0932A01BDCF199904C0809148078136F0
:1009700019F481E090E0CECF489902C0843689F620
:1009800010926A0410926904C9CF8F929F92AF921D
:10099000BF92CF92DF92EF92FF920F931F934B0182
:1009A0005C010091020110910301CA01B9010E948A
:1009B00068246B01C501B4010E946824CB0122E0C8
:1009C00030E042E050E0B6010E942F031F910F91EA
:1009D000FF90EF90DF90CF90BF90AF909F908F905F
:1009E00008958F929F92AF92BF92CF92DF92EF9233
:1009F000FF920F931F934B015C010091080110912E
:100A00000901CA01B9010E9468246B01C501B40142
:100A10000E946824CB0127E030E047E050E0B601B7
:100A20000E942F031F910F91FF90EF90DF90CF90C6
:100A3000BF90AF909F908F9008958F929F92AF92AA
:100A4000BF92CF92DF92EF92FF920F931F934B01D1
:100A50005C010091060110910701CA01B9010E94D1
:100A600068246B01C501B4010E946824CB0125E014
:100A700030E045E050E0B6010E942F031F910F9136
:100A8000FF90EF90DF90CF90BF90AF909F908F90AE
:100A900008958F929F92AF92BF92CF92DF92EF9282
:100AA000FF920F931F934B015C0100910401109181
:100AB0000501CA01B9010E9468246B01C501B40196
:100AC0000E946824CB0123E030E043E050E0B6010F
:100AD0000E942F031F910F91FF90EF90DF90CF9016
:100AE000BF90AF909F908F9008954F925F926F92BA
:100AF0007F928F929F92AF92BF92CF92DF92EF92AE
:100B0000FF920F931F93CF93DF93CDB7DEB72C9750
:100B10000FB6F894DEBF0FBECDBF69837A838B8397
:100B20009C832D833E834F8358873801C601B501CE
:100B300000910801109109010E9468246B01C30112
:100B4000B7010E94682469877A878B879C876D81AB
:100B50007E818F8198850E9468242B0169817A812A
:100B60008B819C810E946824CB011F930F9327E007
:100B7000822E912C37E0A32EB12CE984FA8427E051
:100B800030E047E050E0B2010E94C0020F900F90A9
:100B90002C960FB6F894DEBF0FBECDBFDF91CF917C
:100BA0001F910F91FF90EF90DF90CF90BF90AF908B
:100BB0009F908F907F906F905F904F9008952F92AD
:100BC0003F924F925F926F927F928F929F92AF92DD
:100BD000BF92CF92DF92EF92FF920F931F93CF932A
:100BE000DF9300D000D000D0CDB7DEB7912C812CA0
:100BF0000E9471276DE470E00E94C0261C0127EB63
:100C000034E03E832D83092E000CAA0BBB0B898395
:100C10009A83AB83BC8369817A818B819C810E949A
:100C2000A0242B013C01AD81BE81ED90FD900D9182
:100C30001C91A12CB12CC12C81ECD82EA6019501C0
:100C4000C301B2010E947505811160C0ED81FE8172
:100C50003C96FE83ED832BED34E02E173F07D9F64B
:100C60003CE0389DF001399DF00D1124E954FB4F13
:100C700080E090E0A0E0B1EC84839583A683B78305
:100C8000408251826282738286E2281631040CF01F
:100C900040C080914504909146040196909346048B
:100CA000809345049FEF891A990AA3E08A1691045C
:100CB00009F09ECF909254048092530420914504F1
:100CC0003091460480914304909144048217930725
:100CD00054F510924A071092490726960FB6F894D9
:100CE000DEBF0FBECDBFDF91CF911F910F91FF905F
:100CF000EF90DF90CF90BF90AF909F908F907F90BC
:100D00006F905F904F903F902F900895912C812C81
:100D1000A7CF80914304909144040196909344049A
:100D200080934304BFCF28173907BCF681E090E0D9
:100D300090934A0780934907D0CF8F929F92AF92AA
:100D4000BF92CF92DF92EF92FF920F931F93CF93B8
:100D5000DF9320E030E040E050E460914704709180
:100D600048048091490490914A040E94E72587FD38
:100D700012C0C7EBD4E010E000E0C12C80ECD82E0C
:100D800089E7E82E84E4F82E80915304909154046E
:100D9000081719076CF0DF91CF911F910F91FF9009
:100DA000EF90DF90CF90BF90AF909F908F9008957D
:100DB00080910C01811112C0209113013091140116
:100DC00040911501509116016C817D818E819F812A
:100DD0000E9480236C837D838E839F832C813D8141
:100DE0004E815F81688179818A819B810E94F104B3
:100DF00020E030E040EE50E46C817D818E819F8167
:100E00000E94802320E030E04CE152E40E94E7257C
:100E100087FD2DC088809980AA80BB8020E030E0CB
:100E2000A901C501B4010E94E72587FD20C020E08B
:100E300030E04AE952E4C501B4010E94EC231816DF
:100E4000B4F08091530490915404CC82DD82EE8200
:100E5000FF8201979093540480935304809128015A
:100E600090912901019790932901809328010F5FA8
:100E70001F4F2C9689CFCF92DF92EF92FF92C090B6
:100E80001701D0901801E0901901F0901A0120E0AC
:100E900030E040E85FEBC701B6010E94EC238823F5
:100EA000A1F0A701960160914704709148048091D8
:100EB000490490914A040E947F2320E030E040E8FA
:100EC0005FE30E94E725181654F580E00E94C81DD4
:100ED000BC0190E080E00E949E2420E030E048E0E9
:100EE00051E40E94F6230E94592620E030E040E7BA
:100EF00052E40E947F236093B3047093B404809300
:100F0000B5049093B60480E090E0A0E8BFEB809336
:100F1000170190931801A0931901B0931A01FF9043
:100F2000EF90DF90CF9008954F925F926F927F92F3
:100F30008F929F92AF92BF92CF92DF92EF92FF92E9
:100F40000F931F93CF93DF93499905C08091480772
:100F5000873709F08BC00091550410915604023375
:100F600011050CF083C0C0904704D0904804E09075
:100F70004904F0904A0420914B0430914C04409174
:100F80004D0450914E04C701B6010E947F232DEC01
:100F90003CEC4CE45EE30E94E72587FD67C080914E
:100FA0000C01811163C0C80101969093560480938F
:100FB00055048090B3049090B404A090B504B09010
:100FC000B6042BED3FE049E450E4C501B4010E94B2
:100FD000EC2520E030E044E353E40E94F6232B01AB
:100FE0003C010E947D262CE0209FE001219FD00D36
:100FF0001124C051DB4F9B01AC010E9480239B0157
:10100000AC0160912401709125018091260190919D
:1010100027010E948023688379838A839B83C3018D
:10102000B2010E94F1239B01AC010E9480239B012D
:10103000AC01609120017091210180912201909179
:1010400023010E947F236C837D838E839F83888608
:101050009986AA86BB86C0924B04D0924C04E0923B
:101060004D04F0924E0480E280934807DF91CF91C7
:101070001F910F91FF90EF90DF90CF90BF90AF90B6
:101080009F908F907F906F905F904F900895CF9238
:10109000DF92EF92FF920F931F93CF93DF93C0EFF6
:1010A000D4E010E000E080915504909156040817B8
:1010B00019074CF0DF91CF911F910F91FF90EF90A6
:1010C000DF90CF9008952C813D814E815F816881B2
:1010D00079818A819B810E94C50480910C018111D4
:1010E00038C02BED3FE049E450E4688579858A8576
:1010F0009B850E94EC2520E030E044E353E40E940D
:10110000F6236B017C010E947D269B01AC010E94AD
:1011100080239B01AC01688179818A819B810E9437
:101120008023688379838A839B83C701B6010E94E9
:10113000F1239B01AC010E9480239B01AC016C81D7
:101140007D818E819F810E947F236C837D838E832E
:101150009F830F5F1F4F2C96A6CF8F929F92AF92C7
:10116000BF92CF92DF92EF92FF920F931F93CF9394
:10117000DF93C0EFD4E010E000E0D12CC12CE09070
:101180005504F09056040E151F059CF0EC18FD0850
:10119000F0925604E0925504DF91CF911F910F9188
:1011A000FF90EF90DF90CF90BF90AF909F908F9087
:1011B000089588809980AA80BB8020E030E048EACA
:1011C00052E4C501B4010E94E7251816A4F020E0FE
:1011D00030E0A901C501B4010E94EC2387FD0BC0DA
:1011E00020E030E0A9016C817D818E819F810E9489
:1011F000EC2387FF13C0CE0198012F5F3F4F4CE0D7
:10120000FC013C96DC0101900D924A95E1F70C96A9
:101210002E153F0591F78FEFC81AD80A0F5F1F4FA1
:101220002C96ADCF2F923F924F925F926F927F920A
:101230008F929F92AF92BF92CF92DF92EF92FF92E6
:101240000F93CF93DF93CDB7DEB72A970FB6F894FD
:10125000DEBF0FBECDBF20902A0130902B0122E0CF
:10126000220E311CB101032C000C880B990B0E943B
:10127000A02469837A838B839C8380912C01909135
:101280002D019A878987BC0169527109072E000CCC
:10129000880B990B0E94A0244B015C012BED3FE0D1
:1012A00049E450E46091B3047091B4048091B504B2
:1012B0009091B6040E94EC2520E030E044E353E432
:1012C0000E94F6232B013C010E947D269B01AC016C
:1012D000C501B4010E94EC2529813A814B815C81D2
:1012E0000E9480236B017C01C0922401D0922501D1
:1012F000E0922601F0922701C301B2010E94F1237E
:101300006D837E838F83988729853A85B901330F52
:10131000880B990B0E94A0242B013C012D813E815A
:101320004F815885C501B4010E94EC259B01AC0199
:10133000C301B2010E947F236093200170932101B9
:10134000809322019093230120E030E0A901C7019E
:10135000B6010E94EC2387FF78C0109224011092FE
:101360002501109226011092270180E090E0A4E26E
:10137000B2E48093200190932101A0932201B093C5
:1013800023016091200170912101809122019091AF
:1013900023010E9468246B01609124017091250152
:1013A00080912601909127010E946824CB0101E0E1
:1013B00029853A85A101B6010E941F1E20E030E078
:1013C00040E85FE369817A818B819C810E94802360
:1013D0000E9468244B01609120017091210180914D
:1013E0002201909123010E9468246B0120E030E0EB
:1013F00040E85FE36091240170912501809126010E
:10140000909127010E9480230E946824CB012985A6
:101410003A85A401B6010E941F1E2A960FB6F894C1
:10142000DEBF0FBECDBFDF91CF910F91FF90EF9048
:10143000DF90CF90BF90AF909F908F907F906F90F4
:101440005F904F903F902F90089520E030E048EA61
:1014500052E4C701B6010E94E72518160CF091CF9F
:1014600080E090E0A6EAB2E4809324019093250105
:10147000A0932601B093270178CF0F931F9300917B
:101480000A0110910B01EAE2F1E06281738122E02E
:1014900030E046E050E0808191810E942F031F914F
:1014A0000F910C9412094F925F926F927F928F92DC
:1014B0009F92AF92BF92CF92DF92EF92FF920F93E3
:1014C0001F93CF93DF93CDB7DEB72C970FB6F89469
:1014D000DEBF0FBECDBF69837A838B839C832D8350
:1014E0003E834F835887C601B5010E9468246B0173
:1014F000C801B7010E94682469877A878B879C8717
:1015000000910801109109016D817E818F8198857C
:101510000E9468242B0169817A818B819C810E94C1
:101520006824CB01209103012F93209102012F9376
:1015300022E0822E912C32E0A32EB12CE984FA8491
:1015400027E030E047E050E0B2010E94C0020F9077
:101550000F902C960FB6F894DEBF0FBECDBFDF9173
:10156000CF911F910F91FF90EF90DF90CF90BF90A0
:10157000AF909F908F907F906F905F904F90089565
:101580004F925F926F927F928F929F92AF92BF9293
:10159000CF92DF92EF92FF920F931F93CF93DF933F
:1015A000CDB7DEB72C970FB6F894DEBF0FBECDBF18
:1015B00069837A838B839C832D833E834F835887F3
:1015C000C601B5010E9468246B01C801B7010E94E1
:1015D000682469877A878B879C8700910601109120
:1015E00007016D817E818F8198850E9468242B017F
:1015F00069817A818B819C810E946824CB01209132
:1016000003012F93209102012F9322E0822E912C2F
:1016100032E0A32EB12CE984FA8425E030E045E0E5
:1016200050E0B2010E94C0020F900F902C960FB6AE
:10163000F894DEBF0FBECDBFDF91CF911F910F9108
:10164000FF90EF90DF90CF90BF90AF909F908F90E2
:101650007F906F905F904F9008954F925F926F923E
:101660007F928F929F92AF92BF92CF92DF92EF9232
:10167000FF920F931F93CF93DF93CDB7DEB72C97D5
:101680000FB6F894DEBF0FBECDBF69837A838B831C
:101690009C832D833E834F835887C601B5010E94EA
:1016A00068246B01C801B7010E94682469877A87A2
:1016B0008B879C8700910401109105016D817E81CB
:1016C0008F8198850E9468242B0169817A818B81A2
:1016D0009C810E946824CB01209103012F932091CB
:1016E00002012F9322E0822E912C32E0A32EB12C06
:1016F000E984FA8423E030E043E050E0B2010E9444
:10170000C0020F900F902C960FB6F894DEBF0FBE5C
:10171000CDBFDF91CF911F910F91FF90EF90DF90A0
:10172000CF90BF90AF909F908F907F906F905F9081
:101730004F9008955F926F927F928F929F92AF9297
:10174000BF92CF92DF92EF92FF920F931F93CF93AE
:10175000DF936B017C0149015A0120E030E0A901CF
:10176000C701B6010E94EC2387FD99C020E030E05C
:1017700040EA50E4C701B6010E94802320E030E037
:1017800048EA52E40E94E72518160CF493C08091B1
:101790005104909152042CE0522E589EF001599E13
:1017A000F00D1124E559FB4FC082D182E282F38211
:1017B00084829582A682B7820E947127C0915104CB
:1017C000D09152045C9E90015D9E300D1124A901C0
:1017D00045595B4F3A010DE310E0B8010E94C02665
:1017E000BC016E517109072E000C880B990B0E94E9
:1017F000A024F3016087718782879387CE010196C9
:10180000589EE001599ED00D1124C559DB4F20E0B0
:1018100030E040E050E4C701B6010E9480236883B5
:1018200079838A839B838C829D82AE82BF820E9451
:101830007127C0915104D0915204AE014F5F5F4FA8
:10184000549E9001559E300D1124A90145595B4FBE
:101850007A01B8010E94C026BC016E517109072EA1
:10186000000C880B990B0E94A024F70160877187F8
:10187000828793872296D0935204C0935104DF91BC
:10188000CF911F910F91FF90EF90DF90CF90BF907D
:10189000AF909F908F907F906F905F90089520E021
:1018A00030E040E85FE3C701B6010E9480236B018E
:1018B0007C0153CF20E030E040E85FE3C701B60190
:1018C0000E947F236B017C0151CF4F925F926F92F8
:1018D0007F928F929F92AF92BF92CF92DF92EF92C0
:1018E000FF920F931F93CF93DF93CBE6D4E010E0EA
:1018F00000E0412C80EC582E89E7682E84E4782E95
:101900008091510490915204081719078CF0DF91CF
:10191000CF911F910F91FF90EF90DF90CF90BF90EC
:10192000AF909F908F907F906F905F904F900895B1
:101930002C813D814E815F81688179818A819B8183
:101940000E941D0580910C01811142C02BED3FE0EA
:1019500049E450E4688579858A859B850E94EC2559
:1019600020E030E044E353E40E94F6234B015C01A5
:101970000E947D26C0901301D0901401E0901501C3
:10198000F0901601A70196010E94EC259B01AC0185
:10199000688179818A819B810E9480236883798311
:1019A0008A839B83C501B4010E94F1239B01AC0192
:1019B000C701B6010E94EC259B01AC016C817D81C1
:1019C0008E819F810E9480236C837D838E839F8381
:1019D000C880D980EA80FB8020E030E040E85FE307
:1019E000C701B6010E94EC2387FD0AC020E030E069
:1019F0004EE952E4C701B6010E94E72518164CF4DF
:101A000088859985AA85BB85B05888879987AA87D4
:101A1000BB8720E030E04CE052E46C817D818E8118
:101A20009F810E94E725181604F520E030E0A90107
:101A3000C701B6010E94E72587FD17C020E030E00E
:101A40004EE952E4C701B6010E94EC2387FF0DC0A6
:101A5000488259826A827B82809128019091290173
:101A6000019790932901809328010F5F1F4F2C96B7
:101A700047CF4F925F926F927F928F929F92AF92D9
:101A8000BF92CF92DF92EF92FF920F931F93CF936B
:101A9000DF93CBE4D7E010E000E0412C80EC582E3F
:101AA00089E7682E84E4782E80914F049091500449
:101AB000081719078CF0DF91CF911F910F91FF90BC
:101AC000EF90DF90CF90BF90AF909F908F907F90DE
:101AD0006F905F904F9008952C813D814E815F8182
:101AE000688179818A819B810E94490580910C01DE
:101AF000811142C02BED3FE049E450E468857985CF
:101B00008A859B850E94EC2520E030E044E353E485
:101B10000E94F6234B015C010E947D26C0901301B8
:101B2000D0901401E0901501F0901601A7019601E4
:101B30000E94EC259B01AC01688179818A819B819F
:101B40000E948023688379838A839B83C501B401C3
:101B50000E94F1239B01AC01C701B6010E94EC2554
:101B60009B01AC016C817D818E819F810E948023CD
:101B70006C837D838E839F83C880D980EA80FB80BD
:101B800020E030E040E85FE3C701B6010E94EC23AB
:101B900087FD0AC020E030E042EA52E4C701B60106
:101BA0000E94E72518164CF488859985AA85BB857F
:101BB000B05888879987AA87BB8720E030E044E146
:101BC00052E46C817D818E819F810E94E7251816E9
:101BD00004F520E030E0A901C701B6010E94E72525
:101BE00087FD17C020E030E042EA52E4C701B601A9
:101BF0000E94EC2318166CF0488259826A827B821C
:101C00008091280190912901019790932901809357
:101C100028010F5F1F4F2C9647CFCF92DF92EF9294
:101C2000FF920F931F93CF93DF9387EBE82E84E00F
:101C3000F82E10E000E0D12CC12CC0915304D091BB
:101C400054040C171D077CF0CC19DD09D093540403
:101C5000C0935304DF91CF911F910F91FF90EF90AC
:101C6000DF90CF90089520E030E048EA52E4F70199
:101C700060817181828193810E94E72518169CF40E
:101C8000C70198012F5F3F4F4CE0FC013C96DC01FF
:101C900001900D924A95E1F70C962C173D0791F7AC
:101CA000FFEFCF1ADF0A0F5F1F4F8CE0E80EF11C29
:101CB000C4CF2F923F924F925F926F927F928F92FA
:101CC0009F92AF92BF92CF92DF92EF92FF920F93CB
:101CD0001F93CF93DF93CDB7DEB728970FB6F89455
:101CE000DEBF0FBECDBF20EF34E038872F83312C0D
:101CF000212C8091550490915604281639060CF039
:101D00006FC087EB882E84E0982E1A82198255C006
:101D1000D40114964D905D906D907C9017978D91A5
:101D20009D910D90BC91A02D8B839C83AD83BE8330
:101D3000EF81F885A480B580C680D780E080F180EF
:101D400002811381A3019201BC01CD010E94530ABB
:101D5000882351F1809157049091580401969093F3
:101D600058048093570420E030E040E85FE36B8143
:101D70007C818D819E810E948023A30192010E941B
:101D80009A0B80E090ECA9E7B4E4F401808391839E
:101D9000A283B38380E090ECA9E7B4ECEF81F885EF
:101DA00080839183A283B38329813A812F5F3F4F40
:101DB0003A8329833CE0830E911C809153049091D7
:101DC0005404A981BA81A817B9070CF4A1CFBFEFB9
:101DD0002B1A3B0AEF81F8853C96F887EF8389CF71
:101DE00028960FB6F894DEBF0FBECDBFDF91CF911E
:101DF0001F910F91FF90EF90DF90CF90BF90AF9029
:101E00009F908F907F906F905F904F903F902F901A
:101E100008953F924F925F926F927F928F929F921E
:101E2000AF92BF92CF92DF92EF92FF920F931F93E8
:101E3000CF93DF9300D0CDB7DEB74B015C01290112
:101E40003A016701780120E030E040E450E4C50148
:101E5000B4010E94EC2387FDBCC020E030E040E2EA
:101E600051E4C501B4010E94802320E030E048EA3B
:101E700052E40E94E72518160CF4B6C080914F0476
:101E8000909150042CE0322E389E9001399E300DF6
:101E90001124255B384F3A83298320E030E040E469
:101EA00050E4C501B4010E947F23E981FA81608377
:101EB00071838283938344825582668277820E94F3
:101EC000712700914F0410915004309E9001319E73
:101ED000300D1124A901455B584F5A8349836DE3A6
:101EE00070E00E94C026BC01990F880B990B0E94DC
:101EF000A024A70196010E94802320E030E040EF5B
:101F000051E40E947F23E981FA816087718782878B
:101F100093870F5F1F4F309EC001319E900D11249B
:101F20008C01055B184F20E030E040EA50E4C50129
:101F3000B4010E948023F8016083718382839383BC
:101F400044825582668277820E94712700914F04F5
:101F500010915004A8014F5F5F4F349E9001359E51
:101F6000300D1124A901455B584F5A016DE370E013
:101F70000E94C026BC01990F880B990B0E94A024D7
:101F8000A70196010E94802320E030E040EF51E459
:101F90000E947F23F50160877187828793870E5F98
:101FA0001F4F1093500400934F040F900F90DF9138
:101FB000CF911F910F91FF90EF90DF90CF90BF9046
:101FC000AF909F908F907F906F905F904F903F90D9
:101FD000089520E030E040E85FE3C501B4010E94CD
:101FE00080234B015C012FCF20E030E040E85FE32D
:101FF000C501B4010E947F234B015C012ECF2F92BB
:102000003F924F925F926F927F928F929F92AF9288
:10201000BF92CF92DF92EF92FF920F931F93CF93D5
:10202000DF93CDB7DEB728970FB6F894DEBF0FBEAB
:10203000CDBF20915504309156043E832D8380916D
:102040004F04909150049C838B8380EF882E84E012
:10205000982E312C212C412C90EC592E99E7692E89
:1020600094EC792E2D813E81221633060CF053C05C
:102070008BE497E098878F831A8219823DC0D40140
:102080001496AD90BD90CD90DC901797ED90FD909B
:102090000D911C91EF81F88524813581468157810E
:1020A00060817181828193810E942D0B8823C9F008
:1020B000809157049091580404969093580480930B
:1020C000570480E090ECA9E7B4E4EF81F8858083C1
:1020D0009183A283B383D4014D925D926D927C92E1
:1020E0001397E981FA813196FA83E9832F81388544
:1020F000245F3F4F38872F838B819C81A981BA81D0
:10210000A817B9070CF4BBCFBFEF2B1A3B0AECE0C2
:102110008E0E911CA7CF28960FB6F894DEBF0FBE87
:10212000CDBFDF91CF911F910F91FF90EF90DF9086
:10213000CF90BF90AF909F908F907F906F905F9067
:102140004F903F902F9008952F923F924F925F9221
:102150006F927F928F929F92AF92BF92CF92DF92B7
:10216000EF92FF920F931F93CF93DF93CDB7DEB71C
:1021700028970FB6F894DEBF0FBECDBF80EF882E34
:1021800084E0982E312C212C809155049091560496
:10219000281639060CF074C02BE634E038872F83FC
:1021A0001A8219825CC0AF81B88514968D919D9179
:1021B0000D90BC91A02D8B839C83AD83BE83EF815A
:1021C000F8854080518062807380D4011496AD9070
:1021D000BD90CD90DC901797ED90FD900D911C91E6
:1021E0002B813C814D815E81C301B2010E94C00AF6
:1021F000882351F18091570490915804029690934E
:10220000580480935704EF81F885E084F1840285B7
:1022100013852B813C814D815E81C301B2010E94F7
:10222000090F80E090ECA9E7B4E4EF81F8858083A2
:102230009183A283B38380E090ECA9E7B4ECF4012E
:1022400080839183A283B38329813A812F5F3F4F9B
:102250003A8329838F8198850C9698878F83809104
:10226000510490915204A981BA81A817B9070CF4BE
:102270009ACFBFEF2B1A3B0AECE08E0E911C84CF55
:1022800028960FB6F894DEBF0FBECDBFDF91CF9179
:102290001F910F91FF90EF90DF90CF90BF90AF9084
:1022A0009F908F907F906F905F904F903F902F9076
:1022B0000895CF92DF92EF92FF920F931F93CF93E7
:1022C000DF938BE6E82E84E0F82E10E000E0D12CBE
:1022D000C12CC0915104D09152040C171D077CF001
:1022E000CC19DD09D0935204C0935104DF91CF91F2
:1022F0001F910F91FF90EF90DF90CF90089520E015
:1023000030E048EA52E4F701608171818281938173
:102310000E94E72518169CF4C70198012F5F3F4FD4
:102320004CE0FC013C96DC0101900D924A95E1F7EE
:102330000C962C173D0791F7FFEFCF1ADF0A0F5FBE
:102340001F4F8CE0E80EF11CC4CFCF92DF92EF92CA
:10235000FF920F931F93CF93DF938BE4E82E87E0D8
:10236000F82E10E000E0D12CC12CC0914F04D09188
:1023700050040C171D077CF0CC19DD09D0935004D4
:10238000C0934F04DF91CF911F910F91FF90EF9079
:10239000DF90CF90089520E030E048EA52E4F70162
:1023A00060817181828193810E94E72518169CF4D7
:1023B000C70198012F5F3F4F4CE0FC013C96DC01C8
:1023C00001900D924A95E1F70C962C173D0791F775
:1023D000FFEFCF1ADF0A0F5F1F4F8CE0E80EF11CF2
:1023E000C4CF8091530490915404209151043091B2
:1023F0005204822B932B20914F0430915004822B56
:10240000932B892B11F40C94DF0508950F9301E0B1
:1024100030E020E044E550E070E060E090E080E0F3
:102420000E941F1E20E330E050E040E070E060E0DA
:1024300090E080E00E941F1E20E330E043E550E082
:1024400070E060E083E590E00E941F1E2FE230E024
:1024500044E550E06FE270E090E080E00E941F1ED3
:102460000F91089521E04FE351E063E070E084E1D3
:1024700090E00E94A61F21E049E451E064E170E091
:1024800086E190E00E94A61F21E042E551E06BE169
:1024900070E082E190E00C94A61F8F929F92AF9221
:1024A000BF92CF92DF92EF92FF920F931F93CF9341
:1024B000DF9388248A94982C94E5E92EF12CAA24A1
:1024C000A394B12CCFEFDFEFCC24CA9433E0D32E0A
:1024D0007E9905C00E94A4198237910569F4DF91A5
:1024E000CF911F910F91FF90EF90DF90CF90BF9011
:1024F000AF909F908F90089580E1C816D1041CF092
:102500008FE0C81AD108C6010E94BB020E94F11DCB
:102510000E94321281E0A816B104A1F5219681E053
:1025200088169104A9F58FEFE81AF80AC535D10588
:1025300018F0B194A194B10885E5E816F10418F0FB
:10254000919481949108009100011091010121E082
:1025500030E045E050E06CE070E0CE010E942F03D7
:10256000009100011091010121E030E045E050E0D0
:102570006CE070E0C7010E942F030E9406120E94C7
:10258000DE1DA6CF8FEFA816B80649F62197C7CF54
:102590008FEF8816980651F681E0E81AF108C6CF49
:1025A0000E94AD080E940D0E0E9459110C94A511B5
:1025B0000E94590E0E94A4100C94FF0F8F929F92BC
:1025C000AF92BF92CF92DF92EF92FF92CF93DF93C1
:1025D0008090470490904804A0904904B0904A0429
:1025E00020E030E040E752E4C501B4010E94F62348
:1025F0000E94DB240E9468246B01EB018CE38C9D1C
:10260000B0018D9D700D1124072E000C880B990BC5
:102610000E94A0249B01AC01C501B4010E947F234C
:102620000E94DB240E9468244B0121E08AE0881686
:1026300091046CF550E040E067E08EE20E94A00358
:1026400021E0A40167E084E30E94A00321E0A60149
:1026500067E02A973CF483E20E94A00321E050E067
:1026600040E067E08DE10E94A00321E04AE367E0DB
:1026700070E089E290E0DF91CF91FF90EF90DF90E2
:10268000CF90BF90AF909F908F900C94451FA40166
:1026900067E08EE2D9CF0E94F11D21E041E751E0D1
:1026A00067E070E083E090E00E94A61F21E04DE526
:1026B00051E061E170E085E090E00E94A61F40914A
:1026C00028015091290121E061E180E20E94A003EC
:1026D00021E044E651E06BE170E085E090E00E948B
:1026E000A61F409157045091580421E06BE188E205
:1026F0000E94A0030E94DE120C94DE1D0F931F9314
:10270000CF93DF9300D000D00F92CDB7DEB78B010F
:102710000E94B1024AE0BE016F5F7F4FC8010E9474
:102720008D28CE0101960E94B10285ED93E00E94B2
:10273000B1020F900F900F900F900F90DF91CF91FB
:102740001F910F910895CF93DF9300D000D00F9287
:10275000CDB7DEB74AE0BE016F5F7F4F0E948D2884
:10276000CE0101960E94B1020F900F900F900F9032
:102770000F90DF91CF9108958F929F92AF92BF9269
:10278000CF92DF92EF92FF920F931F93CF93DF933D
:102790008090470490904804A0904904B0904A0467
:1027A00020E030E040E752E4C501B4010E94F62386
:1027B0000E94DB240E9468246B018B018CE38C9DBA
:1027C000B0018D9D700D1124072E000C880B990B04
:1027D0000E94A0249B01AC01C501B4010E947F238B
:1027E0000E94DB240E9468244B01EB018CE691E0FF
:1027F0000E94B1020A30110524F490E080E00E94AA
:10280000A313C6010E94A31388E791E00E94B102BE
:102810002A9724F490E080E00E94A313C4010E9450
:10282000A31385ED93E0DF91CF911F910F91FF905E
:10283000EF90DF90CF90BF90AF909F908F900C94CF
:10284000B1020E94BC1360912801709129018AE7AE
:1028500091E00E947E13609157047091580484E6C1
:1028600091E00E947E13609153047091540482E8B9
:1028700091E00E947E1360915104709152048EE8A1
:1028800091E00E947E1360914F047091500489E999
:1028900091E00E947E13609155047091560485EA80
:1028A00091E00E947E136091B3047091B404809112
:1028B000B5049091B6040E9468248EEA91E00E94CB
:1028C0007E1320E030E040E251E46091130170910A
:1028D000140180911501909116010E94EC250E942F
:1028E000682488EB91E00E947E1384ED93E00C94C1
:1028F000B102189904C0809148078037A9F48091EB
:102900000C0191E0892780930C0180E280934807B5
:1029100080911F01882341F00E94211410921F0111
:1029200080EC91E00C94B10208951F9904C080914D
:102930004807833779F40E94211480910C01882381
:1029400049F00E944B13189905C00E94A4198037C2
:10295000910599F7089590ED980F81E09A3008F06D
:1029600080E008958091490790914A07009781F58A
:102970002A9A2FE788E391E0215080409040E1F7C8
:1029800000C000002A982FE788E391E021508040A2
:102990009040E1F700C000002A9A2FE788E391E019
:1029A000215080409040E1F700C000002A980E942A
:1029B000F11184E090E090934A07809349071092C8
:1029C0004604109245041092440410924304089562
:1029D000019779F72B9A2FE788E391E02150804007
:1029E0009040E1F700C000002B982FE788E391E0CA
:1029F000215080409040E1F700C000002B9A2FE763
:102A000088E391E0215080409040E1F700C0000051
:102A10002B98CDCFE1E6F4E010821182128213826E
:102A200014821092400410923F0408957E9907C0CA
:102A300090914807923719F0882309F454C01092F6
:102A4000400410923F0485E090E090932901809328
:102A50002801109258041092570486E290E0909357
:102A60002B0180932A011092540410925304109267
:102A70005204109251041092500410924F0410927C
:102A80005604109255041092590410925A04109250
:102A90005B0410925C0410924B0410924C04109250
:102AA0004D0410924E04109267041092420410924A
:102AB000410480E090E0A0E8BFE38093130190938D
:102AC0001401A0931501B093160181E080930C01CD
:102AD00080931F0110923E0410923D0480E2809387
:102AE00048070C94D01208956DE080E00E94CB1F3F
:102AF00021E04FE351E063E170E083E190E00E9468
:102B0000A61F0E94DE1D0E94F11DF2CFCF92DF9220
:102B1000EF92FF92CF93DF9380912801909129014A
:102B2000181619060CF476C00E9421148FEC91E05F
:102B30000E94B102D0E0C0E021E04BED51E063E142
:102B400070E08FE090E00E94A61F0E94DE1DCE0183
:102B50000E94BB022F960E94F11DCB3084E0D80763
:102B600059F7C0904704D0904804E0904904F09091
:102B70004A04A7019601609147047091480480912E
:102B8000490490914A040E947F2320E030E040E80D
:102B900050E40E94EC2387FD2AC02A982B98CE018E
:102BA0000E94BB02CF30D1050CF02F9721E045EEFB
:102BB00051E06DE070E085E090E00E94A61F21E00A
:102BC00041EF51E06CE170E085E090E00E94A61FCB
:102BD0000E94DE1D0E94F11D7E9B0EC081E0DF91F0
:102BE000CF91FF90EF90DF90CF900C9416150E943C
:102BF000EB032A9A2B9ABDCF0E94A4198237910524
:102C000069F37D990E9474150E94A419813791057A
:102C100031F6F8CFDF91CF91FF90EF90DF90CF901A
:102C200008950E940A1580E290E090930E0180932F
:102C30000D0108958FEF9FEF909312018093110182
:102C40009093100180930F010E940A150C941116A5
:102C500081E694E00E948127803127E2920710F0FC
:102C60008FE097E290932901809328010C9411162C
:102C700081E694E00E948127803127E2920710F0DC
:102C80008FE097E290935804809357040C941116A8
:102C9000CF92DF92EF92FF920F931F93CF93DF9328
:102CA000C0901101D0901201D7FE12C081E694E0CD
:102CB0000E9481279093120180931101DF91CF919F
:102CC0001F910F91FF90EF90DF90CF900C940A1519
:102CD00080910F019091100197FF55C081E694E01B
:102CE0000E9481278C019093100180930F01C09165
:102CF0005304D0915404C330D1050CF04DC02EE4E0
:102D0000C216D104ACF42CE02C9FC0012D9F900D75
:102D10001124FC01E954FB4F7F01B601DD0C880B47
:102D2000990B0E94A024F7016083718382839383AF
:102D300000321105ACF42CE02C9FC0012D9F900DAA
:102D400011249C0129543B4F7901B801110F880BC4
:102D5000990B0E94A024F70164837583868397836F
:102D60002196D0935404C09353040E940A150E94E4
:102D700011168FEF9FEF90931201809311019093A2
:102D8000100180930F01DF91CF911F910F91FF9060
:102D9000EF90DF90CF900895DF91CF911F910F9129
:102DA000FF90EF90DF90CF900C941A16CF92DF92A5
:102DB000EF92FF920F931F93CF93DF93C090110177
:102DC000D0901201D7FE12C081E694E00E948127C4
:102DD0009093120180931101DF91CF911F910F9178
:102DE000FF90EF90DF90CF900C940A1580910F0127
:102DF0009091100197FF55C081E694E00E948127D1
:102E00008C019093100180930F01C0915104D091D7
:102E10005204C630D1050CF04DC020E5C216D104D5
:102E2000ACF42CE02C9FC0012D9F900D1124FC01CF
:102E3000E559FB4F7F01B601DD0C880B990B0E9411
:102E4000A024F7016083718382839383023211058A
:102E5000ACF42CE02C9FC0012D9F900D11249C01FF
:102E600025593B4F7901B801110F880B990B0E942E
:102E7000A024F70164837583868397832196D0937A
:102E80005204C09351040E940A150E9411168FEF3C
:102E90009FEF909312018093110190931001809302
:102EA0000F01DF91CF911F910F91FF90EF90DF9075
:102EB000CF900895DF91CF911F910F91FF90EF90E8
:102EC000DF90CF900C941A16CF92DF92EF92FF9280
:102ED0000F931F93CF93DF93C0901101D0901201F5
:102EE000D7FE12C081E694E00E94812790931201E0
:102EF00080931101DF91CF911F910F91FF90EF907F
:102F0000DF90CF900C940A1580910F0190911001E1
:102F100097FF3FC081E694E00E9481277C01909357
:102F2000100180930F01C0914F04D0915004CC3018
:102F3000D105C4F58CE08C9F80018D9F100D11246C
:102F4000055B184FB601DD0C880B990B0E94A0247D
:102F5000F8016083718382839383B701FF0C880B30
:102F6000990B0E94A024F80164837583868397835C
:102F70002196D0935004C0934F040E9411168FEFF6
:102F80009FEF909312018093110190931001809311
:102F90000F01DF91CF911F910F91FF90EF90DF9084
:102FA000CF900895DF91CF911F910F91FF90EF90F7
:102FB000DF90CF900C941A1680914807813709F062
:102FC0007D990E9474150895809148078F3321F4EC
:102FD0008AEF91E00E94B10280E280934807089551
:102FE00081E694E00E94812797FF02C090E080E094
:102FF0008F34910514F08EE490E090932B01809330
:103000002A010C9411168091470490914804A091D4
:103010004904B0914A0480931B0190931C01A09332
:103020001D01B0931E0181E694E00E948127811565
:1030300024E09207C4F497FD1BC0BC01990F880BD4
:10304000990B0E94A02420E030EC4FE754E40E944A
:10305000F6236093130170931401809315019093EC
:1030600016010C94111660E070EC8FE794E4EBCF3E
:1030700060E070E0CB01E7CF809147049091480475
:10308000A0914904B0914A048093170190931801CC
:10309000A0931901B0931A0181E694E00E94812760
:1030A0008D339105B4F4BC01990F880B990B0E94E4
:1030B000A0242091DB04211190586093B3047093F5
:1030C000B4048093B5049093B6041092DB040C947E
:1030D000111660E070E080E792E4EBCFE0910D0123
:1030E000F0910E01E756F109E930F105A0F4E35142
:1030F000F64D0C94D4260C9403180C943C180C94A4
:1031000028160C9438160C94F0170C9448160C944E
:10311000D6160C94641708951F93CF93DF930E94E3
:10312000A419EC01182F8093660480538A30E8F4C8
:1031300080910D0190910E019C012F7D232BA9F010
:103140000E94C903882389F080913F049091400434
:10315000FC01EF59FB4FC08301969093400480938C
:103160003F04DF91CF911F9108958C2F0E94C903D6
:103170008823C9F080910D0190910E018F7D892BDC
:1031800091F4DD27D0930E01C0930D011D3299F407
:1031900080910D0190910E018F36910511F781E01C
:1031A0008093DB04DECF8C2F0E94D803882371F339
:1031B000C0934807EBCF1D30A1F6DF91CF911F914F
:1031C0000C946E18CF92DF92EF92FF92C0901B0189
:1031D000D0901C01E0901D01F0901E0120E030E035
:1031E00040E85FEBC701B6010E94EC238823A1F001
:1031F000A7019601609147047091480480914904A9
:1032000090914A040E947F2320E030E040E85FE391
:103210000E94E725181614F581E00E94C81DBC0124
:1032200090E080E00E949E2420E030EC4FE754E4E0
:103230000E94F6236093130170931401809315018B
:103240009093160180E090E0A0E8BFEB80931B0113
:1032500090931C01A0931D01B0931E01FF90EF906D
:10326000DF90CF9008950E9479140E94B2140E94BA
:10327000F1110E94DC170E9495140E943B070E94E6
:103280009D060E9494070E943B040E9447080E94EA
:10329000AD080E94650C0E9459110E94390D0E94D0
:1032A000A5110E940D0E0E942D040E943D0A0E944D
:1032B00086150E94E4170E948C180C94E2180E9454
:1032C000DF051092BF001092CF0008950E94810286
:1032D0000E944D120E945F190E94EB030E94F11D93
:1032E0000E94D8120E94331980E00E9416150E9495
:1032F000DE1D2FE788E391E0215080409040E1F708
:1033000000C00000E9CF8091E80080FFFCCF089565
:1033100081E08093D70080EA8093D80082E189BD64
:1033200009B400FEFDCF80E98093D8001092E00040
:103330001092600410925D048CE08093E200789417
:1033400008958091600408959FB7F8948091600477
:10335000811104C09FBF8FEF9FEF089583E080939A
:10336000E9002BE68091E80085FD05C082FFF2CFE1
:103370002093E800F7CF8091F1002091E80025FD2F
:1033800003C02BE62093E8009FBF90E008952FB77D
:10339000F89480916004811103C080E02FBF0895EC
:1033A00083E08093E9008091F2008111F7CF909142
:1033B000E80092FFF2CF892F807295FDEECF9BE659
:1033C0009093E800EBCF80916004882359F08FB789
:1033D000F89493E09093E9002BE69091E80095FD36
:1033E00002C08FBF08952093E800F7CF909160044A
:1033F000911102C08FEF08959FB7F89424E02093B5
:10340000E90020915E04222341F02091E80025FD8F
:1034100002C09FBFEFCF10925E042091E400275EB0
:1034200034E04091E80045FD12C09FBF9091E40058
:10343000921304C081E080935E04DCCF909160041D
:103440009923C1F29FB7F8943093E900EACF8093B3
:10345000F1008091E80085FD03C08AE38093E800D5
:1034600085E080935F049FBF80E0089590916004A1
:10347000992351F09FB7F89424E02093E90020911C
:10348000E80025FD03C09FBF8FEF08958093F100F2
:103490008091E80085FD03C08AE38093E80085E021
:1034A00080935F049FBF80E0089520916004211104
:1034B00002C08FEF08952FB7F89434E03093E900FD
:1034C00030915E04332341F03091E80035FD02C0B5
:1034D0002FBFEFCF10925E0434E040E45AE3A5E042
:1034E0006115710511F480E00895E091E400E75E54
:1034F000F091E800F5FD12C02FBF2091E4002E13DB
:1035000004C081E080935E04D4CF20916004222324
:1035100081F22FB7F8943093E900EACFE091F200FE
:10352000B42FBE1BB617170611F008F0B62FEB2FFD
:10353000F0E06E1B7F0BB13408F03FC1EA50F64D4E
:103540000C94D426FC0181918093F100CF01FC0101
:1035500081918093F100CF01FC0181918093F10072
:10356000CF01FC0181918093F100CF01FC01819199
:103570008093F100CF01FC0181918093F100CF0194
:10358000FC0181918093F100CF01FC018191809336
:10359000F100CF01FC0181918093F100CF01FC018A
:1035A00081918093F100CF01FC0181918093F10022
:1035B000CF01FC0181918093F100CF01FC01819149
:1035C0008093F100CF01FC0181918093F100CF0144
:1035D000FC0181918093F100CF01FC0181918093E6
:1035E000F100CF01FC0181918093F100CF01FC013A
:1035F00081918093F100CF01FC0181918093F100D2
:10360000CF01FC0181918093F100CF01FC018191F8
:103610008093F100CF01FC0181918093F100CF01F3
:10362000FC0181918093F100CF01FC018191809395
:10363000F100CF01FC0181918093F100CF01FC01E9
:1036400081918093F100CF01FC0181918093F10081
:10365000CF01FC0181918093F100CF01FC018191A8
:103660008093F100CF01FC0181918093F100CF01A3
:10367000FC0181918093F100CF01FC018191809345
:10368000F100CF01FC0181918093F100CF01FC0199
:1036900081918093F100CF01FC0181918093F10031
:1036A000CF01FC0181918093F100CF01FC01819158
:1036B0008093F100CF01FC0181918093F100CF0153
:1036C000FC0181918093F100CF01FC0181918093F5
:1036D000F100CF01FC0181918093F100CF01FC0149
:1036E00081918093F100CF01FC0181918093F100E1
:1036F000CF01FC0181918093F100CF01FC01819108
:103700008093F100CF01FC0181918093F100CF0102
:10371000FC0181918093F100CF01FC0181918093A4
:10372000F100CF01FC0181918093F100CF01FC01F8
:1037300081918093F100CF01FC0181918093F10090
:10374000CF01FC0181918093F100CF01FC018191B7
:103750008093F100CF01FC0181918093F100CF01B2
:10376000FC0181918093F100CF01FC018191809354
:10377000F100CF01FC0181918093F100CF01FC01A8
:1037800081918093F100CF01FC0181918093F10040
:10379000CF01FC0181918093F100CF01FC01819167
:1037A0008093F100CF01FC0181918093F100CF0162
:1037B000FC0181918093F100CF01FC018191809304
:1037C000F100CF01E091E800E5FF5093E800A093FD
:1037D0005F042FBF85CE8FB7F89490915F04992333
:1037E00041F094E09093E9009AE39093E8001092FE
:1037F0005F048FBF089560912E0170912F01809119
:1038000030019091310108958091320108958091A5
:103810003301089580913401089580915D040895E5
:103820009FB7F89420916004211103C09FBF8FEFD0
:10383000089522E02093E9002091E80025FFF6CFCB
:1038400021EA2093F10020E22093F1001092F10090
:103850001092F1001092F1001092F10021E02093FB
:10386000F1001092F1008093F1008AE38093E80068
:103870009FBF80E008951F921FB61F9211248F935F
:103880009F938091E1001092E10083FF11C010929C
:10389000E90091E09093EB001092EC0092E190939C
:1038A000ED0098E09093F0001092600410925D0497
:1038B00082FF13C080916004882379F080915F04B7
:1038C000882359F0815080935F04811106C084E001
:1038D0008093E9008AE38093E8009F918F911F9085
:1038E0001FBE1F9018951F920F920FB60F921124B2
:1038F000EF92FF920F931F932F933F934F935F93FA
:103900006F937F938F939F93AF93BF93CF93DF93E7
:10391000EF93FF931092E9008091E80083FF72C05B
:10392000D091F100C091F100E090F1008091F100A0
:10393000F82E0091F1008091F100182F8091F10094
:103940009091F10022EF2093E800C63009F066C0A4
:103950002CEC31E0F90145915491E416F50609F09B
:103960004AC0F9013296459154910417150709F0A0
:1039700042C0F901349645915491F9013696E4918B
:103980008F3F910519F010F08FEF90E0E81708F4E1
:103990008E2F3EEF9091E800292F2570D9F392FDEC
:1039A00013C0982F813108F090E1FA01292F2111DD
:1039B0002FC0490F511DE82FE91B9E2F3093E800BF
:1039C000E11124C0803110F5FF91EF91DF91CF918B
:1039D000BF91AF919F918F917F916F915F914F9127
:1039E0003F912F911F910F91FF90EF900F900FBE7D
:1039F0000F901F901895295F3F4F41E0263F3407F5
:103A000009F0A8CF81E28093EB00DECF892FC2CFEF
:103A100064916093F10021503196C9CFC53051F4C3
:103A20008EEF8093E8000E9483198E2D806880932A
:103A3000E300CACFC93069F5D111E4CFE092600448
:103A400010925D0410925F048EEF8093E80021E0F5
:103A50008BE892E02093E900AC014F5F5F4FFC01DF
:103A600034913093EB00332391F0FA014491409369
:103A7000EC003196E4910396E093ED002F5F253042
:103A800049F78EE18093EA001092EA009DCFCA01C7
:103A9000F5CFC83069F4D03809F0B4CF0E9483194B
:103AA000809160048093F1008EEF8093E8008CCFCA
:103AB000C13289F4D13A09F0A5CF0E9483198EE270
:103AC00091E0FC012191CF012093F100F1E08533D9
:103AD0009F07B9F7E9CFC032B1F4D13209F092CFE4
:103AE0008091E80082FFFCCF8EE291E02091F1000E
:103AF000FC012193CF01F1E085339F07B9F78BEFEC
:103B00008093E800D1CFC23241F4D13209F07ACFAC
:103B1000E0925D040E948319C7CFC11112C00E94B8
:103B20008319D23849F40093E900C091EB00C5FB3A
:103B3000CC27C0F91092E900C093F1001092F10077
:103B4000B3CF8C2F8D7F813009F05CCFD23009F05C
:103B500059CFEF2809F056CF0F778FEF800F8430C1
:103B600008F050CF8EEF8093E8000093E900C33057
:103B700009F448CF89E18093EB0081E090E001C037
:103B8000880F0A95EAF77ECF87E880937A00089538
:103B9000982F9F71906490937C00807280937B003B
:103BA00080917A00806480937A0080917A0086FD0B
:103BB000FCCF80917800909179000895CF93DF93A6
:103BC00060E080E00E942620CFEDD7E0699181E09F
:103BD0000E94CB1F89E0C73DD807C1F7DF91CF9185
:103BE0000895EFEDF7E0119289E0E73DF807D9F786
:103BF000089584359105F8F460337105E0F49B0174
:103C000073E0359527957A95E1F774E5729FF00199
:103C1000739FF00D1124E80FF91FE152F84F8081D6
:103C2000677021E030E001C0220F6A95EAF7452B6A
:103C300019F0282B2083089520952823FBCF2F925D
:103C40003F924F925F926F927F928F929F92AF922C
:103C5000BF92CF92DF92EF92FF920F931F93CF9379
:103C6000DF93CDB7DEB728970FB6F894DEBF0FBE4F
:103C7000CDBF98878F837B016A011901841795074F
:103C8000A1F56B0113C031E0C31AD1080FC0C214F3
:103C9000D30494F0A801B6018F8198850E94F91D84
:103CA000E214F30484F72FEFC21AD20AE214F304E9
:103CB00074F72C143D0474F728960FB6F894DEBF01
:103CC0000FBECDBFDF91CF911F910F91FF90EF906D
:103CD000DF90CF90BF90AF909F908F907F906F902C
:103CE0005F904F903F902F9008956217730701F5F2
:103CF000AF80B88414C021E0A21AB10810C0AC147F
:103D0000BD04D4F2A801B701C5010E94F91D8F813D
:103D100098858C159D057CF79FEFA91AB90A8F81AC
:103D200098858C159D055CF7CA14DB045CF7C4CF3D
:103D30002F8138854217530754F48F2D7101262E99
:103D4000382E9F81888558874F83C92ED82EC6016B
:103D50002F813885821B930B9C838B83C1018E1925
:103D60009F099A838983BC01990F880B990B0E9444
:103D7000A0244B015C012B813C81B901330F880BDE
:103D8000990B0E94A0249B01AC01C501B4010E94C3
:103D9000F6232B013C0120E030E0A9010E94E72539
:103DA00087FF04C077FA709477F87094812C912C77
:103DB00054018A81881F8827881F282F30E03E837E
:103DC0002D838B819C81181619060CF057C02F810A
:103DD0003885C216D3060CF46FCFA801B7018F81C6
:103DE00098850E94F91DA3019201C501B4010E94AA
:103DF00080234B015C0120E030E040E05FE30E9463
:103E0000E72587FD08C089819A811816190674F480
:103E10002E143F0474F42B813C81121613063CF5DA
:103E20008F819885019698878F83CBCFE214F30416
:103E300094F3A801B7018F8198850E94F91D81E054
:103E400090E029813A811216130614F090E080E088
:103E50002D813E81821B930BE80EF91E20E030E09D
:103E600040E85FE3C501B4010E947F23C2CF2F81E8
:103E700038852150310938872F83A3CF8F819885CA
:103E80008C159D050CF0A9CF17CF4F925F926F92C2
:103E90007F928F929F92AF92BF92CF92DF92EF92DA
:103EA000FF920F931F93CF93DF935B013901405231
:103EB000550B65E0649F9001659F300D1124A901A9
:103EC0004B565D4F7A018C012C0155E0450E511C7B
:103ED00088248394912CF701C4906114710409F42F
:103EE000C094D0E0C0E0D12CA4010C2E02C0440F3D
:103EF000551F0A94E2F74C215D210C2E02C0559506
:103F000047950A94E2F7B5016C0F7D1FC8010E9426
:103F1000F91D2196C830D10539F74FEFE41AF40A9C
:103F20000F5F1F4F04151505B1F6DF91CF911F915B
:103F30000F91FF90EF90DF90CF90BF90AF909F9048
:103F40008F907F906F905F904F900895CF92DF9207
:103F5000EF92FF920F931F93CF93DF937B018A0120
:103F60006901D82FC0E0F801EC0FF11D408141112B
:103F700009C0DF91CF911F910F91FF90EF90DF90DB
:103F8000CF9008959601B7018D2F90E00E94451FB4
:103F9000DB5FCF5FE8CF95B19F7D40E2849F9001CA
:103FA0001124922B95B95F9887E090E070E08F988C
:103FB0009B01082E02C0359527950A94E2F720FF51
:103FC00006C02E9A8F9A019790F75F9A08952E98BF
:103FD000F9CFCF93C82F579A249A259A269A879A71
:103FE0002C985F9A2C9A61E280E00E94CB1F6C2F84
:103FF000606880E00E94CB1F64E080E00E94CB1FDD
:1040000063E180E00E94CB1F6CE080E00E94CB1F48
:1040100060E280E00E94CB1F6CE080E00E94CB1F3A
:1040200060E480E00E94CB1F60E880E0CF910C94B8
:10403000CB1FCF93DF93C8EFD1E060E081E00E9417
:10404000CB1F2197D1F7DF91CF910895CF93C82F40
:10405000606480E00E94CB1F6C2F606880E0CF918D
:104060000C94CB1FAFE0B0E0E8E3F0E20C94DA266A
:104070006C011B014A01FC0117821682838181FFBA
:1040800034C39E012F5F3F4F3901F6019381F10147
:1040900093FD859193FF81911F01882309F4D6C276
:1040A000853239F493FD859193FF81911F0185320B
:1040B00039F4B60190E00E94BA2854014501E5CFD9
:1040C000F12C512C00E0003238F48B3209F190F4DD
:1040D0008032F9F0833209F107FD34C020ED280F5A
:1040E0002A3020F506FF1BC0FAE0FF9E200D1124A8
:1040F000F22E05C08D3279F0803371F70160F10145
:1041000093FD859193FF81911F018111DCCF1AC02E
:1041100002600460F4CF0860F2CF0061F0CF3AE0B3
:10412000539E200D1124522E0062E9CF8E3221F4CD
:1041300006FD8CC20064E3CF8C3611F40068DFCF3B
:104140008836E9F29BEB980F933008F05CC0006171
:10415000805E06FD02C046E0F42E102F1F738536E8
:1041600009F058C0106417FF5EC08F2D9BE39F15A8
:1041700008F48BE344244394480E27E0F401619152
:104180007191819191915F01042DA3010E949F275C
:104190004C01F981FC87F0FF03C00DE2F3FF07C07B
:1041A0000BE211FD04C0012F047012FD00E22C850A
:1041B0002C70E22E09F457C001119AC2F3E0E12CF1
:1041C000F515A0F483E0E52CE81A13FD08C0B6014C
:1041D00080E290E00E94BA28EA94E110F8CF002330
:1041E00029F0B601802F90E00E94BA283C852AEC85
:1041F000822E20E0922E33FD04C09EEC892E90E0AA
:10420000992E107122C09BE9980F933008F034C1A9
:104210000F7E9FCF863611F41068A5CFFF2009F4DA
:10422000A2CFFA94A0CFE7E02F2DEF1518F427E0E6
:1042300037E0F32E412CA2CF11118052B60190E04D
:104240000E94BA288FEF881A980AF401849181118C
:10425000F3CFEE2009F432CFB60180E290E00E9465
:10426000BA28EA94F6CF17FF70C0480CFC85F4FF1B
:1042700004C08A81813309F44A9414140CF087C075
:1042800028E0241510F488E0482E85E090E017FF20
:1042900006C0C40197FE02C090E080E001960111C3
:1042A0000196FF2031F02F2D30E02F5F3F4F820F1E
:1042B000931F5816190619F014F0E52CE81A812FEF
:1042C000897011F4E11068C0002329F0B601802F35
:1042D00090E00E94BA2813FD02C0E11064C017FFED
:1042E0007DC0840197FE02C010E000E0C401841983
:1042F00091092C016F2D70E0EE27FF27E61BF70BCD
:10430000FF87EE87801691060CF454C040165106C4
:104310000CF050C0F401E01BF10BE60DF71D81819C
:10432000015011092E853F85021713070CF444C074
:10433000B60190E00E94BA280F3F100719F7B601A6
:104340008EE290E00E94BA28DDCF16FD9ECFEF2DC1
:10435000F0E0E815F90534F03CEF83163FEF9306E3
:104360000CF010683296E60DF71D01C0FA94FF209C
:1043700019F082918033D1F317FF87CF44244394FF
:104380004F0CF814190431F02CF0F8187ECF4424A7
:1043900043947BCFF12C79CFB60180E290E00E946C
:1043A000BA28EA948FCFB60180E390E00E94BA2841
:1043B000EA9493CF80E3B4CF8016910641F49A81BA
:1043C000963350F4953319F49C8594FF05C0B601DB
:1043D00090E00E94BA283DCF81E3F9CF8A818133F2
:1043E00019F0EC85EF7EEC87B60190E00E94BA28C8
:1043F000FF20A9F0B6018EE290E00E94BA28F39463
:10440000F394E2E001E00E0FE60DF72DF11D80813F
:10441000B60190E00E94BA28E02F0F11F3CF85E695
:1044200090E014FF02C085E490E0B6010E94BA2833
:1044300097FC06C081149104C1F4FC85F4FF15C0FB
:104440009194819491088DE2B60190E00E94BA287F
:1044500080E33AE08316910454F4B60190E00E94A0
:10446000BA28B601C401C096B4CF8BE2EDCF8F5FFE
:104470002AE0821A9108EDCF8336B1F0833759F1E3
:10448000833509F055C0F401819091905F016F2D43
:1044900070E006FD02C06FEF7FEFC4010E94772835
:1044A0009D878C8700680DC0540182E0A80EB11C66
:1044B000F4018081898321E030E03D872C8743012E
:1044C0000F7703FD06C02C853D855216130609F0B3
:1044D00090F4E52C28C0F401819091905F016F2D3C
:1044E00070E006FD02C06FEF7FEFC4010E948228DA
:1044F0009D878C87E5CFB60180E290E00E94BA28C4
:104500005A94E1CFF40107FD859107FF81914F0196
:10451000B60190E00E94BA28E110EA948C859D854E
:1045200001979D878C87EC85FD85EF2B59F791CE00
:10453000843619F0893609F06EC0F40107FF63C0B4
:1045400061917191819191915F01102F1F7697FF79
:1045500008C090958095709561957F4F8F4F9F4FC4
:1045600010682AE030E0A3010E941A29882E8618DC
:10457000982C012F16FF0AC00E7F8F1438F414FFF9
:1045800004C012FD02C0012F0E7E9F2C04FF85C0C7
:10459000FE01E80DF11D8081803309F077C0097EAE
:1045A000F02FF870EF2E03FD87C000FF81C0F82CBC
:1045B000951410F4F50CF91804FF84C0B60180E3DB
:1045C00090E00E94BA2802FF09C088E790E001FF4E
:1045D00002C088E590E0B6010E94BA288F1408F462
:1045E0007DC08A94082D10E00F5F1F4F060D171D28
:1045F000F80182918F01B60190E00E94BA28061559
:104600001705B1F726CE619171915F01072E000C5D
:10461000880B990B9ACF102F853791F41F7E2AE0D3
:1046200030E0F40117FF2CC061917191819191915B
:104630005F01A3010E941A29882E86181F7798CF40
:10464000197F8F36D1F048F4883591F0F6018681D4
:1046500097812F96E2E10C94F626803739F088375F
:10466000A9F714FD146020E130E0DBCF1061F9CF31
:1046700004FD166020E132E0D4CF28E030E0D1CF55
:10468000619171915F0190E080E0D3CF02FD02C0A3
:10469000939486CF9394939483CF802F867809F454
:1046A0007FCFF6CFB60180E290E00E94BA289394C3
:1046B0009514C0F3E12C80CFE52CE918951408F48B
:1046C0007BCFF8CF802F867809F488CF8BE201FF6B
:1046D00080E207FD8DE2B60190E07ECFB60180E377
:1046E00090E00E94BA28FA9479CF8FEF9FEFB1CF74
:1046F00024E0E12C251508F074CD84E064CD5058F9
:10470000BB27AA270E9497230C9481250E94482545
:1047100038F00E944F2520F039F49F3F19F426F419
:104720000C9445250EF4E095E7FB0C941625E92F33
:104730000E94A62558F3BA176207730784079507E6
:1047400020F079F4A6F50C94E0250EF4E0950B2EFC
:10475000BA2FA02D0B01B90190010C01CA01A001D3
:104760001124FF27591B99F0593F50F4503E68F12E
:104770001A16F040A22F232F342F4427585FF3CF6F
:10478000469537952795A795F0405395C9F77EF440
:104790001F16BA0B620B730B840BBAF09150A1F089
:1047A000FF0FBB1F661F771F881FC2F70EC0BA0F0F
:1047B000621F731F841F48F4879577956795B79597
:1047C000F7959E3F08F0B0CF9395880F08F0992792
:1047D000EE0F9795879508950E94F22408F481E0E2
:1047E00008950E945825E3950C9492250E940A246E
:1047F0000C9481250E944F2558F00E94482540F0D6
:1048000029F45F3F29F00C94162551110C94E125F1
:104810000C9445250E94A62568F39923B1F35523EE
:1048200091F3951B550BBB27AA27621773078407C3
:1048300038F09F5F5F4F220F331F441FAA1FA9F359
:1048400035D00E2E3AF0E0E832D091505040E69547
:10485000001CCAF72BD0FE2F29D0660F771F881FA8
:10486000BB1F261737074807AB07B0E809F0BB0B9B
:10487000802DBF01FF2793585F4F3AF09E3F5105AF
:1048800078F00C9416250C94E1255F3FE4F3983EF4
:10489000D4F3869577956795B795F7959F5FC9F798
:1048A000880F911D9695879597F90895E1E0660F19
:1048B000771F881FBB1F621773078407BA0720F092
:1048C000621B730B840BBA0BEE1F88F7E0950895FB
:1048D0000E946F246894B1110C94E12508950E9400
:1048E000AE2588F09F5798F0B92F9927B751B0F0AF
:1048F000E1F0660F771F881F991F1AF0BA95C9F764
:1049000014C0B13091F00E94E025B1E008950C94FC
:10491000E025672F782F8827B85F39F0B93FCCF3AF
:10492000869577956795B395D9F73EF490958095E0
:10493000709561957F4F8F4F9F4F0895E89409C000
:1049400097FB3EF490958095709561957F4F8F4FC2
:104950009F4F9923A9F0F92F96E9BB279395F695D8
:10496000879577956795B795F111F8CFFAF4BB0F56
:1049700011F460FF1BC06F5F7F4F8F4F9F4F16C0BA
:10498000882311F096E911C0772321F09EE8872F44
:10499000762F05C0662371F096E8862F70E060E000
:1049A0002AF09A95660F771F881FDAF7880F969579
:1049B000879597F908950E94C82590F09F3748F48D
:1049C000911116F00C94E12560E070E080E89FEB17
:1049D000089526F41B16611D711D811D0C941C2564
:1049E0000C943725990F0008550FAA0BE0E8FEEF4D
:1049F00016161706E807F907C0F012161306E407A3
:104A0000F50798F0621B730B840B950B39F40A269B
:104A100061F0232B242B252B21F408950A2609F479
:104A2000A140A6958FEF811D811D089597F99F677D
:104A300080E870E060E00895882371F4772321F026
:104A40009850872B762F07C0662311F499270DC045
:104A50009051862B70E060E02AF09A95660F771FE0
:104A6000881FDAF7880F9695879597F908959F3FE5
:104A700031F0915020F4879577956795B795880F19
:104A8000911D9695879597F908959FEF80EC08956D
:104A900000240A941616170618060906089500241D
:104AA0000A94121613061406050608950C9445255B
:104AB0000E94AE25D8F3E894E0E0BB279F57F0F0C2
:104AC0002AED3FE049EC06C0EE0FBB0F661F771FD3
:104AD000881F28F0B23A62077307840728F0B25A99
:104AE000620B730B840BE3959A9572F7803830F460
:104AF0009A95BB0F661F771F881FD2F790480C94BA
:104B00003925092E0394000C11F4882352F0BB0FB1
:104B100040F4BF2B11F460FF04C06F5F7F4F8F4FD5
:104B20009F4F0895EF93E0FF07C0A2EA2AED3FE010
:104B300049EC5FEB0E9497230E9481250F9003941C
:104B400001FC9058ECEAF0E00C94852657FD905853
:104B5000440F551F59F05F3F71F04795880F97FB41
:104B6000991F61F09F3F79F08795089512161306FB
:104B70001406551FF2CF4695F1DF08C0161617062A
:104B80001806991FF1CF869571056105089408955F
:104B90000E94AE25A0F0BEE7B91788F4BB279F3866
:104BA00060F41616B11D672F782F8827985FF7CF0E
:104BB000869577956795B11D93959639C8F30895B5
:104BC000E894BB2766277727CB0197F908950E94C1
:104BD000F22408F48FEF08950E94FF250C9481259C
:104BE0000E94482538F00E944F2520F0952311F0AF
:104BF0000C9416250C94452511240C94E1250E9453
:104C0000A62570F3959FC1F3950F50E0551F629F45
:104C1000F001729FBB27F00DB11D639FAA27F00D15
:104C2000B11DAA1F649F6627B00DA11D661F829F3C
:104C30002227B00DA11D621F739FB00DA11D621F21
:104C4000839FA00D611D221F749F3327A00D611D3E
:104C5000231F849F600D211D822F762F6A2F112420
:104C60009F5750409AF0F1F088234AF0EE0FFF1F53
:104C7000BB1F661F771F881F91505040A9F79E3FAA
:104C8000510580F00C9416250C94E1255F3FE4F368
:104C9000983ED4F3869577956795B795F795E79500
:104CA0009F5FC1F7FE2B880F911D9695879597F909
:104CB00008950E94AE25E8F09E37E8F09639B8F4E2
:104CC0009E3848F4672F782F8827985FF9CF86950C
:104CD0007795679593959539D0F3B62FB1706B0F93
:104CE000711D811D20F487957795679593950C9498
:104CF0001C250C9437250C94E1259F930E94582580
:104D00000F9007FCEE5F0C9492259F938F937F93F7
:104D10006F93FF93EF939B01AC010E94EC25EF9101
:104D2000FF910E9499262F913F914F915F910C9492
:104D3000EC25DF93CF931F930F93FF92EF92DF92B7
:104D40007B018C01689406C0DA2EEF010E94FF25DA
:104D5000FE01E894A5912591359145915591A6F3D1
:104D6000EF010E949723FE019701A801DA9469F7E9
:104D7000DF90EF90FF900F911F91CF91DF910895F9
:104D800097FB072E16F4009407D077FD09D00E94F8
:104D9000112707FC05D03EF4909581959F4F08950B
:104DA000709561957F4F0895EE0FFF1F0590F49168
:104DB000E02D09942F923F924F925F926F927F92D3
:104DC0008F929F92AF92BF92CF92DF92EF92FF921B
:104DD0000F931F93CF93DF93CDB7DEB7CA1BDB0BC7
:104DE0000FB6F894DEBF0FBECDBF09942A8839886C
:104DF00048885F846E847D848C849B84AA84B98473
:104E0000C884DF80EE80FD800C811B81AA81B9817E
:104E1000CE0FD11D0FB6F894DEBF0FBECDBFED0192
:104E20000895AA1BBB1B51E107C0AA1FBB1FA617F1
:104E3000B70710F0A61BB70B881F991F5A95A9F743
:104E400080959095BC01CD0108958F929F92AF926D
:104E5000BF92CF92DF92EF92FF92CF93DF93EC015C
:104E6000688179818A819B81611571058105910530
:104E700021F464E279ED8BE597E02DE133EF41E039
:104E800050E00E94882949015A019B01AC01A7EA20
:104E9000B1E40E94A7296B017C01ACEEB4EFA5013F
:104EA00094010E94B529DC01CB018C0D9D1DAE1D26
:104EB000BF1DB7FF03C00197A109B048888399833C
:104EC000AA83BB839F77DF91CF91FF90EF90DF9014
:104ED000CF90BF90AF909F908F9008950E9425270C
:104EE000089585E391E00E9425270895B0E0A0E0B1
:104EF0008093350190933601A0933701B093380128
:104F00000895FC0188279927E89421912032E9F33C
:104F1000293010F02E30C8F32B3241F02D3239F405
:104F2000689404C00E949828820F911D21912053FB
:104F30002A30C0F31EF4909581959F4F0895283034
:104F400008F027E03327DA01990F311D87FD9160C2
:104F500000966105710539F432602E5F3D9330E3B0
:104F60002A95E1F708959F3F30F08038710561057B
:104F700009F03C5F3C5F3D93913008F08068911DE3
:104F8000DF93CF931F930F93FF92EF92192F987F88
:104F90009695E92F96959695E90FFF27E45DFE4FCC
:104FA00099273327EE24FF24A701E70105900894F1
:104FB000079428F4360FE71EF81E491F511D660F8F
:104FC000771F881F991F0694A1F70590079428F46E
:104FD000E70EF81E491F561FC11D770F881F991F26
:104FE000661F0694A1F70590079428F4F80E491F50
:104FF000561FC71FD11D880F991F661F771F069464
:10500000A1F70590079420F4490F561FC71FD81F1A
:10501000990F661F771F881F0694A9F78491109532
:10502000177041F0D695C79557954795F794E79433
:105030001A95C1F7E2EDF0E068941590159135915D
:105040006591959105907FE27395E118F10A430B04
:10505000560BC90BD009C0F7E10CF11E431F561FB8
:10506000C91FD01D7EF4703311F48A95E6CFE89401
:10507000015030F0080F0AF40027021708F4202F1F
:105080002395022F7A3328F079E37D932A95E9F767
:1050900010C07D932A9589F6069497956795379564
:1050A00017951794E118F10A430B560BC90BD00959
:1050B00098F023957E9173957A3308F070E37C9392
:1050C0002013B8F77E9170617D9330F0839571E382
:1050D0007D9370E32A95E1F71124EF90FF900F91F3
:1050E0001F91CF91DF91992787FD90950895FC013D
:1050F0000590615070400110D8F7809590958E0F03
:105100009F1F0895FC016150704001900110D8F775
:10511000809590958E0F9F1F0895BB274A3031F4DC
:10512000992322F4BDE2909581959F4F0C94A1287C
:105130007AE0979F902D879F802D910D11240895DF
:10514000BB27FB015527AA27880F991FAA1FA41761
:1051500010F0A41B83955051B9F7A05DAA3308F055
:10516000A95DA193009779F7B111B1931192CB0189
:105170000C9478290F931F93CF93DF93182F092F47
:10518000EB018B8181FD09C01FEF0FEF812F902F65
:10519000DF91CF911F910F91089582FF14C02E814E
:1051A0003F818C819D81281739073CF4E881F98182
:1051B000CF0101969983888310838E819F81019608
:1051C0009F838E83E3CFE885F985812F0995892B0D
:1051D000A1F3DACFAEE0B0E0E0EFF8E20C94E8261D
:1051E0000D891E898F89988D26E02C831A83098367
:1051F00097FF02C080E090E801979E838D83AE0107
:10520000455E5F4F698D7A8DCE0101960E943220F6
:105210004D815E8157FD0AC02F81388542175307A3
:105220000CF49A01020F131FF80110822E96E4E08D
:105230000C940427FA01AA27283051F1203181F17A
:10524000E8946F936E7F6E5F7F4F8F4F9F4FAF4F8E
:10525000B1E03ED0B4E03CD0670F781F891F9A1FA1
:10526000A11D680F791F8A1F911DA11D6A0F711D55
:10527000811D911DA11D20D009F468943F912AE061
:10528000269F11243019305D3193DEF6CF01089549
:10529000462F4770405D4193B3E00FD0C9F7F6CF7A
:1052A000462F4F70405D4A3318F0495D31FD405242
:1052B000419302D0A9F7EACFB4E0A69597958795D8
:1052C00077956795BA95C9F70097610571050895B7
:1052D0009B01AC010A2E0694579547953795279563
:1052E000BA95C9F7620F731F841F951FA01D0895FB
:1052F000DC01FC01672F71917723E1F7329704C03D
:105300007C916D9370836291AE17BF07C8F30895C7
:10531000052E97FB1EF400940E949F2957FD07D08D
:105320000E94BA2907FC03D04EF40C949F29509593
:105330004095309521953F4F4F4F5F4F0895909581
:105340008095709561957F4F8F4F9F4F08950E9474
:10535000DC29A59F900DB49F900DA49F800D911DF9
:1053600011240895B7FF0C94A7290E94A729821B36
:10537000930B0895A1E21A2EAA1BBB1BFD010DC0C1
:10538000AA1FBB1FEE1FFF1FA217B307E407F507F5
:1053900020F0A21BB30BE40BF50B661F771F881FD1
:1053A000991F1A9469F760957095809590959B0167
:1053B000AC01BD01CF010895A29FB001B39FC00110
:1053C000A39F700D811D1124911DB29F700D811D31
:1053D0001124911D0895F894FFCF8118831889181E
:1053E000851887187F187B188B187D18E21BDD1B2A
:1053F000D81BD31BCE1BC91BC41BBF1BBA1BB51BA1
:10540000B01BAB1BA61BA11B9C1B971B921B8D1BD0
:10541000881B831B7E1B791B741B6F1B6A1B651B00
:10542000601B5B1B561B511B4C1B471B421B3D1B30
:10543000381B331B2E1B291B241B1F1B1A1B151B60
:10544000101B0B1B061B011BFC1AF71AF21AED1A94
:10545000E81AE31ADE1AD91AD41ACF1ACA1AC51AC8
:0E546000C01ABB1AB61AB11AAC1AA71AA21AB1
:10546E0035043604D803E203FC032E04012000FFAA
:10547E00FFFFFF0000803F000080BF000080BF01E3
:10548E000000204200002042050026002E0000E110
:10549E000000000008010000002566002564006E73
:1054AE0031303038383635320041737465726F6979
:1054BE00640041706F63616C79707365004C69664E
:1054CE00653A200053636F72653A200047616D653F
:1054DE002054696D653A20003A004C697665733A3E
:1054EE00200041737465726F6964733A2000426FD5
:1054FE00756C646572733A2000467261676D656EF5
:10550E0074733A2000506C61736D613A20005475CB
:10551E007272656E743A200053706565643A2000AD
:10552E0047616D6520537461727465640D0A00479E
:10553E00616D65204F7665720D0A0047616D6520BD
:10554E004F766572004C423A2052657374617274E4
:10555E000052423A205175697400276127206D6F01
:10556E00766520737061636573686970206C65661B
:10557E00740D0A276427206D6F7665207370616342
:10558E0065736869702072696768740D0A277727DA
:10559E00206669726520706C61736D6120626F6C3C
:1055AE0074730D0A2773272073656E6420616E6411
:1055BE0020646973706C61792067616D6520737406
:1055CE00617475730D0A2772272073746172742FBC
:1055DE0072657365742067616D650D0A27702720EB
:1055EE0070617573652067616D650D0A27712720DF
:1055FE00717569740D0A27742720736574206169AB
:10560E006D206F6620746865207475727265740DF6
:10561E000A276D2720736574207468652073706582
:10562E006564206F66207468652067616D650D0A7C
:10563E00276C2720736574207468652072656D6110
:10564E00696E696E672075736566756C206C696628
:10565E0065206F6620746865206465666C6563748A
:10566E006F7220736869656C640D0A276727207353
:10567E006574207468652073636F72650D0A273F29
:10568E0027207072696E7420636F6E74726F6C7304
:10569E0020746F20636F6D70757465722073637202
:1056AE0065656E20285075747479290D0A27682750
:1056BE00206D6F7665207370616365736869702005
:1056CE00746F20636F6F7264696E6174650D0A2763
:1056DE006A2720706C6163652061737465726F69EF
:1056EE006420617420636F6F7264696E6174650DFE
:1056FE000A276B2720706C61636520626F756C647E
:10570E00657220617420636F6F7264696E61746577
:10571E000D0A27692720706C6163652066726167C8
:10572E006D656E7420617420636F6F7264696E6153
:10573E0074650D0A200D0A00202E202E2E2E202EEE
:10574E00200020202E2020202E2E2E202E2E2E2EFB
:10575E002E202E2E2E2020202E20200020202E2EF9
:10576E002E2020202E2E2E2E2E202E2E2E2E2E2E83
:10577E002E2E2E2E2E2E2E2E202E2E2E2E2E202065
:10578E00202E2E2E20202020202E202020002E2ED7
:0C579E002E2E2E2E2E2E2E2E2E2E000033
:00000001FF
