:1000000079C1000092C1000090C100008EC10000C3
:100010008CC100008AC1000088C1000086C10000B8
:1000200084C1000082C1000019C300004FC300005A
:100030007CC100007AC1000078C1000076C10000D8
:1000400074C1000072C1000070C100006EC10000E8
:100050006CC100006AC1000068C1000066C10000F8
:1000600064C1000062C1000060C100005EC1000008
:100070005CC100005AC1000058C1000056C1000018
:1000800054C1000052C1000050C100004EC1000028
:100090004CC100004AC1000048C1000046C1000038
:1000A00044C1000042C1000040C10000222C206D6C
:1000B000757374206265203F206F72203D0D0A0029
:1000C000556E6B6E6F776E20636F6D6D616E642021
:1000D0002200222C206D7573742062652030206F01
:1000E0007220310D0A00556E6B6E6F776E2076614F
:1000F0006C75652022000D0A00222C206D7573742A
:10010000206265203020746F20370D0A00556E6B19
:100110006E6F776E2070696E202200222C206D7524
:1001200073742062652041202D20460D0A00556E13
:100130006B6E6F776E20706F7274202200756E7216
:1001400065636F676E697A656420666F726D61744E
:100150002C2033206368617273206D696E20726594
:100160007127640D0A000D0A003E20000D0A546537
:10017000656E7379205553422053657269616C2016
:100180004578616D706C652C2053696D706C6520CD
:1001900050696E20436F6E74726F6C205368656C8B
:1001A0006C0D0A0D0A4578616D706C6520436F6DAA
:1001B0006D616E64730D0A202042303F2020205272
:1001C00065616420506F727420422C2070696E202B
:1001D000300D0A202043323D30202057726974656B
:1001E00020506F727420432C2070696E2031204C97
:1001F0004F570D0A202044363D3120205772697434
:100200006520506F727420442C2070696E20362057
:10021000484947482020284436206973204C4544EB
:100220002070696E290D0A0D0A0000010000D70236
:100230001200020000940243000300009002040137
:100240000309047A02140203090462021603030973
:100250000454020C0C03310032003300340035002A
:1002600000001603550053004200200053006500B3
:100270007200690061006C000000140359006F00F7
:100280007500720020004E0061006D0065000000E6
:100290000403090409024300020100C032090400FA
:1002A00000010202010005240010010524010101E2
:1002B00004240206052406000107058203100040FD
:1002C00009040100020A00000007050302400000C3
:1002D000070584024000001201000202000010C065
:1002E000167A040001010203010001C112018036E7
:1002F0000181360011241FBECFEFDAE0DEBFCDBF93
:1003000011E0A0E0B1E0E8E6F9E002C005900D924E
:10031000A830B107D9F721E0A8E0B1E001C01D92F3
:10032000AC30B207E1F7CBD01DC36ACECF93DF93D9
:10033000EC01FE0184912196882311F04CD1F9CF74
:10034000DF91CF910895EF92FF920F931F93CF9378
:10035000DF93082FF92EE62E10E01E15E0F405D1EC
:100360008F3F9807A1F08D309105A9F08A30910553
:1003700091F09C01205231092F35310570F7C02FC3
:10038000DF2D899328D11F5F0C2FFD2EE6CFEAD0F9
:10039000811109C01FEF812FDF91CF911F910F9124
:1003A000FF90EF90089557D180FDD7CFF3CFCF9333
:1003B000DF93EC018DE391E0633080F08881EFEB17
:1003C000E80FE63070F0EFE9E80FE63050F08EE22B
:1003D00091E0ACDF8881FFD08BE191E0DF91CF919C
:1003E000A5CF898180538830E8F49A819F3321F525
:1003F00043E0E49FF001112421E030E0A90102C0B4
:10040000440F551F8A95E2F7CA01242F209591A128
:10041000922391A390A1892369F480E3DCD086EF35
:1004200090E0DCCF8DE091E081DF8881D4D089EF4E
:1004300090E0D4CF81E3F2CF6330C9F19D33B9F5B9
:100440009B819033B9F453E0E59FF001112421E042
:1004500030E0A90102C0440F551F8A95E2F7CA0196
:1004600091A1982B91A3809592A1892382A3DF91DA
:10047000CF910895913399F453E0E59FF001112451
:1004800021E030E0A90102C0440F551F8A95E2F730
:10049000CA0191A1982B91A392A1892BE7CF86EE57
:1004A00090E044DF8B8197D082ED90E097CF80EC95
:1004B00090E03CDF88818FD08CEA90E08FCFCDB781
:1004C000DEB7A0970FB6F894DEBF0FBECDBF80E8B1
:1004D0008093610010926100569A5E9A2AD042D0B1
:1004E0008823E9F32FEF83ED90E321508040904083
:1004F000E1F700C00000AFD080FFFDCF59D08CE6FF
:1005000091E014DF89E691E011DF60E2CE0101960F
:100510001ADF182F8F3F79F386E691E007DF612F0E
:10052000CE01019644DFEECF8091E80080FFFCCF42
:10053000089581E08093D70080EA8093D80082E11B
:1005400089BD09B400FEFDCF80E98093D8001092E8
:10055000E00010920B01109208018CE08093E20001
:100560007894089580910B0108959FB7F894809135
:100570000B01811104C09FBF8FEF9FEF089583E0AF
:100580008093E9002BE68091E80085FD05C082FF9D
:10059000F2CF2093E800F7CF8091F1002091E8009E
:1005A00025FD03C02BE62093E8009FBF90E008954F
:1005B00080910B01882359F08FB7F89493E09093C2
:1005C000E9002BE69091E80095FD02C08FBF0895E9
:1005D0002093E800F7CF90910B01911102C08FEFAB
:1005E00008959FB7F89424E02093E9002091090131
:1005F000222341F02091E80025FD02C09FBFEFCFEC
:10060000109209012091E400275E34E04091E80057
:1006100045FD12C09FBF9091E400921304C081E099
:1006200080930901DCCF90910B019923C1F29FB710
:10063000F8943093E900EACF8093F1008091E800CC
:1006400085FD03C08AE38093E80085E080930A017A
:100650009FBF80E008958091080108951F921FB602
:100660001F9211248F939F938091E1001092E100DB
:1006700083FF11C01092E90091E09093EB0010927B
:10068000EC0092E19093ED0098E09093F0001092CE
:100690000B011092080182FF13C080910B01882387
:1006A00079F080910A01882359F0815080930A01E2
:1006B000811106C084E08093E9008AE38093E8001A
:1006C0009F918F911F901FBE1F9018951F920F92A0
:1006D0000FB60F921124EF92FF920F931F932F9357
:1006E0003F934F935F936F937F938F939F93AF93BA
:1006F000BF93CF93DF93EF93FF931092E900809124
:10070000E80083FF72C0D091F100C091F100E09049
:10071000F1008091F100F82E0091F1008091F1003C
:10072000182F8091F1009091F10022EF2093E800C2
:10073000C63009F066C02AE232E0F90145915491D1
:10074000E416F50609F04AC0F90132964591549134
:100750000417150709F042C0F901349645915491E8
:10076000F9013696E4918F3F910519F010F08FEF63
:1007700090E0E81708F48E2F3EEF9091E800292FC3
:100780002570D9F392FD13C0982F813108F090E1C4
:10079000FA01292F21112FC0490F511DE82FE91B04
:1007A0009E2F3093E800E11124C0803110F5FF91B5
:1007B000EF91DF91CF91BF91AF919F918F917F91F9
:1007C0006F915F914F913F912F911F910F91FF90EA
:1007D000EF900F900FBE0F901F901895295F3F4F1D
:1007E00042E02435340709F0A8CF81E28093EB0082
:1007F000DECF892FC2CF64916093F10021503196F2
:10080000C9CFC53049F48EEF8093E8008DDE8E2D80
:1008100080688093E300CBCFC93069F5D111E5CF73
:10082000E0920B011092080110920A018EEF809362
:10083000E80021E089EE92E02093E900AC014F5FEF
:100840005F4FFC0134913093EB00332391F0FA01B8
:1008500044914093EC003196E4910396E093ED00CF
:100860002F5F253049F78EE18093EA001092EA006D
:100870009ECFCA01F5CFC83061F4D03809F0B5CFAA
:1008800053DE80910B018093F1008EEF8093E8009E
:100890008ECFC13281F4D13A09F0A7CF45DE80E096
:1008A00091E0FC012191CF012093F100F1E087302C
:1008B0009F07B9F7EACFC032B1F4D13209F095CF32
:1008C0008091E80082FFFCCF80E091E02091F10070
:1008D000FC012193CF01F1E087309F07B9F78BEF3F
:1008E0008093E800D2CFC23239F4D13209F07DCF03
:1008F000E092080119DEC9CFC11111C015DED2384E
:1009000049F40093E900C091EB00C5FBCC27C0F986
:100910001092E900C093F1001092F100B6CF8C2F35
:100920008D7F813009F061CFD23009F05ECFEF28A2
:1009300009F05BCF0F778FEF800F843008F055CF31
:100940008EEF8093E8000093E900C33009F44DCFA7
:1009500089E18093EB0081E090E001C0880F0A9567
:08096000EAF782CFF894FFCF03
:0809680000E10000000008009E
:00000001FF
